:020000040800F2
:1000000010070020390200084102000843020008DE
:1000100045020008470200084902000800000000ED
:100020000000000000000000000000004B0200087B
:100030004D020008000000004F0200085D050008A6
:10004000530200085302000853020008530200083C
:10005000530200085302000819030008DD040008D9
:100060001D0500085302000853020008530200084F
:10007000530200085302000853020008530200080C
:100080005302000853020008530200080000000059
:100090000000000000000000000000005302000803
:1000A00053020008530200085302000853020008DC
:1000B00053020008530200085302000853020008CC
:1000C00053020008530200085302000853020008BC
:1000D0005302000853020008530200080000000009
:1000E00059030008530200085302000800000000F2
:1000F00000000000000000000000000053020008A3
:1001000000000000530200085302000853020008D8
:1001100000000000000000000000000000000000DF
:10012000530200085302000853020008530200085B
:100130005302000800000000000000000000000062
:100140000000000000000000000000005302000852
:10015000530200085302000853020008530200082B
:1001600053020008530200080000000000000000D5
:10017000000000000000000000000000000000007F
:100180000000000053020008000000000000000012
:100190005302000800F002F800F03EF80AA090E8D0
:1001A000000C82448344AAF10107DA4501D100F032
:1001B00033F8AFF2090EBAE80F0013F0010F18BFC1
:1001C000FB1A43F00103184714080000340800002C
:1001D000103A24BF78C878C1FAD8520724BF30C873
:1001E00030C144BF04680C60704700000023002445
:1001F00000250026103A28BF78C1FBD8520728BF37
:1002000030C148BF0B6070471FB500F0C5FB00F060
:1002100037F81FBD10B510BD00F048F81146FFF7C4
:10022000F3FF00F08BFA00F066F803B4FFF7F2FF7B
:1002300003BC00F069F800000948804709480047FE
:10024000FEE7FEE7FEE7FEE7FEE7FEE7FEE7FEE786
:10025000FEE7FEE704480549054A064B70470000E3
:100260003906000895010008100100201007002041
:1002700010030020100300207047704770470000F3
:1002800070B5064C7C44064D7D4403E02068204454
:100290008047241DAC42F9D170BD000074070000F6
:1002A0007407000000487047B00000207546FFF753
:1002B000F9FFAE4605006946534620F00700854623
:1002C00018B020B5FFF7C6FFBDE820404FF000068C
:1002D0004FF000074FF000084FF0000B21F007012E
:1002E000AC46ACE8C009ACE8C009ACE8C009ACE871
:1002F000C0098D46704710B50446AFF30080204614
:10030000BDE81040FFF791BF01491820ABBEFEE7E2
:10031000260002007047000000B5002000E0401CED
:1003200009498842FBDB0948006800F4704008492D
:1003300008600648006840F001000449086005486C
:10034000007800F087F900BD40420F00143C0140E6
:100350003800002004000020002000E0401C574925
:100360008842FBDB5648006800F47040554908603D
:100370005348006840F47040514908605148006893
:10038000B0F5805F09D0B0F5005F25D0B0F5804FA3
:1003900041D0B0F5004F7CD15CE04B48006818B903
:1003A00001204A49086016E047480068012803D147
:1003B0000420464908600EE043480068022803D143
:1003C00007204249086006E03F480068032802D140
:1003D00002203F4908605CE03B48006818B90220F1
:1003E0003A49086016E038480068012803D1052022
:1003F000364908600EE034480068022803D108201E
:100400003249086006E030480068032802D1002025
:100410002E4908603DE02C48006818B903202B499C
:10042000086016E028480068012803D10620274903
:1004300008600EE024480068022803D109202349FF
:10044000086006E020480068032802D10120204906
:1004500008601EE01C48006818B90B201B490860A2
:1004600016E019480068012803D10C2017490860DC
:100470000EE015480068022803D10D2013490860DA
:1004800006E011480068032802D10A200F490860DD
:1004900000BF00BF0D4801680E480F4A126840F8BF
:1004A00022100D480068401C0B490860084600688F
:1004B000042801DD002008607047000040420F0062
:1004C000143C014038000020340000203C00002093
:1004D00060000020840000204000002000B50020C3
:1004E00000E0401C09498842FBDB0948006800F431
:1004F0007040084908600648006840F0020004495E
:1005000008600548007800F0A5F800BD40420F00E3
:10051000143C01403800002005000020002000E0CD
:10052000401C0A498842FBDB0948006800F470401F
:10053000084908600648006840F004000449086063
:1005400005480078401C04490870704740420F007D
:10055000143C0140380000200900002005480068D4
:10056000401C0449086008460068032801DD00209B
:10057000086070473400002070B50020002202237C
:1005800000240221274D2D6805F00C0020B104281D
:1005900006D0082834D107E0234D244E356033E0DF
:1005A000234D224E35602FE01E4D2D1F2D68C5F3C3
:1005B00080541C4D2D1F2D6805F03F0154B11C4D7A
:1005C000B5FBF1F5174E361F3668C6F3881605FBE6
:1005D00006F209E0144DB5FBF1F5124E361F3668F0
:1005E000C6F3881605FB06F20E4D2D1F2D68C5F3C8
:1005F00001456D1C6B00B2FBF3F50C4E356003E05A
:10060000094D0A4E356000BF00BF064D2D68C5F389
:100610000315084E705D054D2D68C540034E3560CD
:1006200070BD0000083802400024F4007000002073
:1006300040787D01C20900080548006840F4700058
:10064000034908604FF00060014980390860704735
:1006500088ED00E010494861496921F480710E4A33
:1006600051611146496941F40071516100210B4A01
:10067000116004E009490968491C084A11600749EA
:100680000968074A12689142F4DB0349496921F479
:100690000071014A516170470000024030000020A3
:1006A0000C00002000280DDB00BF00BF00F01F027F
:1006B000012191404209920002F1E022C2F80011AA
:1006C00000BF00BF7047000010494861496941F40C
:1006D00080710E4A51611146496941F400715161BE
:1006E00000210B4A116004E009490968491C084AC5
:1006F000116007490968074A12689142F4DB03490F
:10070000496921F40071014A5161704700000240BB
:10071000300000200C00002005480078803005499A
:10072000087003480078C030034908707047000023
:1007300008000020090000200A0000207F4800680F
:1007400040F01F007D4908607C481430006840F488
:1007500080407A491431086079487A49086000205D
:10076000486077488860C8607748006840F0550066
:1007700075490860081D0068091D0860081D0068AB
:1007800040F05530091D0860081D00686F49084396
:100790006D490C31086043F233316D48416140F2DC
:1007A00022206B49083108604FF207006949086050
:1007B0006849083108602820FFF774FF0620FFF71A
:1007C00071FF0720FFF76EFF0820FFF76BFFFFF7B1
:1007D000D3FE614800686422B0FBF2F1481EB0F11C
:1007E000807F00D31BE0481E4FF0E022506150177D
:1007F0000F22002804DB13071C0E584B1C5406E084
:1008000013071D0E564B00F00F04241F1D5500BF8B
:1008100000204FF0E02290610720106100BF4020CF
:10082000FFF718FF002304E04E49C85CFFF74CFFB8
:100830005B1C082BF8DB002304E04B49C85CFFF786
:1008400043FF5B1C082BF8DB002304E04749C85C2E
:10085000FFF73AFF5B1C082BF8DB002304E0444958
:10086000C85CFFF731FF5B1C082BF8DB41480078C0
:10087000FFF7F0FE40480078FFF7ECFE3F480078B5
:10088000FFF7E8FE3E480078FFF7E4FE3D480078B9
:10089000FFF7E0FE50E03C48006830B1012809D085
:1008A00002280CD0032814D10EE00120264914316F
:1008B00008600EE0022024491431086009E0042099
:1008C00021491431086004E008201F4914310860F0
:1008D00000BF00BF00232DE02C4909781944C8B29D
:1008E000FFF7B8FE0020FFF7EFFE2849097819440A
:1008F000491CC8B2FFF7AEFE0120FFF7E5FE244910
:1009000009781944891CC8B2FFF7A4FE0220FFF73A
:10091000DBFE1F4909781944C91CC8B2FFF79AFECB
:100920000320FFF7D1FE002000E0401C1949884257
:10093000FBDB5B1C102BCFDBADE700003038024047
:100940005555550000000240000C0240550000AA19
:1009500000380140003C01407000002000E400E04D
:1009600018ED00E0A2090008AA090008B209000871
:10097000BA09000800000020010000200600002045
:1009800002000020030000203400002009000020A5
:100990000A000020A08601004FF04070E1EE100A2E
:1009A0007047000102040408081000100804040243
:1009B00001011008080404020100010202040408F5
:1009C0001000000000000000000001020304060700
:1009D000080900000000010203040000000A0008EA
:1009E0000000002074000000D0010008740A000814
:1009F000740000209C060000EC0100081DFDFFFFB4
:100A00000102060C1410380400000000E803000086
:100A10004D617468204552524F52202020202020E2
:100A200020202020202020202000000000000000A6
:100A300000000000000000000000000000000000B6
:100A400000000000000000000000000000000000A6
:100A50000000000000000000000000000000000096
:100A60000000000000000000000000000000000086
:040A70000024F4006A
:0400000508000239B4
:00000001FF
